:020000040800F2
:10000000D8070020490100084B0C0008430C0008E9
:10001000470C0008E50A00089318000800000000DB
:100020000000000000000000000000002511000892
:10003000E90A0008000000000F100008391200084B
:100040006301000863010008630100086301000800
:1000500063010008630100086301000863010008F0
:1000600063010008630100086301000863010008E0
:1000700063010008630100086301000863010008D0
:1000800063010008630100086301000863010008C0
:1000900063010008630100086301000863010008B0
:1000A00063010008630100086301000863010008A0
:1000B000630100089D120008E913000863010008AD
:1000C0006301000863010008630100086301000880
:1000D0006301000869160008630100086301000855
:1000E0006301000863010008630100086301000860
:1000F0006301000863010008630100086301000850
:10010000630100086301000863010008630100083F
:10011000630100086301000863010008630100082F
:10012000630100086301000863010008630100081F
:10013000DFF810D000F0C2FA00480047951B000815
:10014000AFF30080D80700200648804706480047E4
:10015000FEE7FEE7FEE7FEE7FEE7FEE7FEE7FEE777
:10016000FEE7FEE73D1200083101000840EA010306
:100170009B0703D009E008C9121F08C0042AFAD25D
:1001800003E011F8013B00F8013B521EF9D2704721
:10019000D2B201E000F8012B491EFBD270470022C9
:1001A000F6E710B513460A4604461946FFF7F0FF76
:1001B000204610BD10B5002200E0521C835C8C5C10
:1001C000A34201D1002BF8D1D8B2E1B2401A10BD40
:1001D0000FB400B58DB010A909900B9000914FF0AD
:1001E000FF300A9000200C900548069005480790C3
:1001F0006A4609A80F9900F093F90DB05DF814FB59
:100200003D0500085B0500082DE9FF5F1D464FF026
:10021000FF3BD5E9014691465F464FF00008A969CA
:100220007F1C01988847296A824688470028F6D1B2
:10023000BAF1FF3F0CD024F4C064002E19DD600633
:1002400014D5BAF12B0F09D0BAF12D0F0ED103E05E
:10025000584604B0BDE8F09F44F48064A9697F1C4F
:1002600001988847761E8246002E02DDBAF1300FD3
:1002700003D0B9F1000F26D032E0A969761E44F40C
:1002800000747F1C019888478246002E05DDBAF174
:10029000780F06D0BAF1580F03D0B9F1000F10D083
:1002A0001EE0B9F1000F02D0B9F1100F18D1A96901
:1002B000761E24F400747F1C019888478246102023
:1002C00002E0082000E00A20814609E008FB090856
:1002D000A969761E44F400747F1C01988847824601
:1002E000002E05DD4946504600F005F90028EDDAFC
:1002F000E96901988847A00502D46FF00100A8E7DA
:10030000E00725D1600613D5600502D5C8F10000CD
:1003100000E0404629680A1D2A600968220501D5C7
:10032000087015E0220701D5088011E008600FE091
:100330002868011D29600068210502D580F8008029
:1003400006E0210702D5A0F8008001E0C0F8008097
:1003500038467EE72DE9FF5FD2E901A74FF000089C
:10036000916999461446DDF838B0464601988847A9
:10037000054659EA0B0005D009E0A169761C0198F1
:1003800088470546216A284688470028F5D1681C19
:1003900003D05FEACA7005D015E04FF0FF3004B01B
:1003A000BDE8F09F2068011D2160D0F800800AE0C0
:1003B0005FEACA7001D108F8015BA169761C7F1E53
:1003C000019888470546002F1ADD681C18D0B9F13E
:1003D000000F0DD0E81705EBD060421120F01F0090
:1003E00059F822102A1A012090400142E0D107E07A
:1003F000BBF1000FDCD1216A284688470028D7D0FE
:10040000E16901988847BBF1000F07D1002E05DD97
:100410005FEACA7002D1002188F80010A068B842D3
:1004200003DDBBF1000F03D017B16FF00100B6E799
:100430003046B4E7F0B480EA0102D40F4200B2EBD8
:10044000410F02D20246084611464A0042D0C30D6F
:10045000DDB2C1F3C752AD1A202D35DAC1F3160152
:1004600041F4000204B15242C5F1200602FA06F13D
:100470002A411044B3EBD05F23D0C4B1012DA0EBCF
:10048000C35009DCF0BC4FF0004202EAC352DBB2B9
:1004900000F5000000F07BB8400000F1807000EB38
:1004A000C350A0F1807040EAD170490009E04908CA
:1004B00041EAC071A0EBC35000F50000400800EB1A
:1004C000C350F0BC00F05AB86142012202EB410176
:1004D000001BF6E7F0BC704781F00041AAE780F00E
:1004E0000040A7E7C10F80EAE0700844CA079623DE
:1004F000002100F04CB83A2800D2303820F0200219
:10050000412A01D3A2F13700884201D34FF0FF30D6
:100510007047000002681144137801601846704764
:10052000D1600449516104491162002111611146F1
:1005300000F0DCB815050008E1060008426842B189
:10054000016811F8013B23B1521EC0E900121846A0
:1005500070470121C160881E704742685AB1C36864
:10056000016843B983688B4205D0491E521CC0E91B
:100570000012002070474FF0FF3070470029A8BFDD
:100580007047401C490008BF20F00100704710B4BC
:10059000B0FA80FC00FA0CF050EA010404BF10BC71
:1005A000704749B1CCF1200421FA04F411FA0CF19E
:1005B00018BF012121430843A3EB0C01CB1D4FEAD7
:1005C00000614FEA102042BF002010BC704700EBD2
:1005D000C35010440029A4BF10BC7047401C490000
:1005E00008BF20F0010010BC704780EA010210B57E
:1005F00002F00043400022D04A001FD0010E01EB60
:100600001261C0F35600C2F3560240F4000042F4F7
:100610000002A0FB022000047F39140400D0401C1B
:1006200050EA124001D44000491EC2B20C0604EB4D
:10063000D010401C4008802A02D003E0002010BDEA
:1006400020F00100002900DA0020184310BD10B589
:1006500041000CD0C0F3C751962908DC7E2909DC83
:1006600006DB410204D000F0004040F07E5010BD97
:10067000002010BDC1F19604C4F1200100FA01F17F
:10068000E040FFF77BFFA04010BD00F0004220F0EB
:100690000040C10DC0F3160040F400007F2901DACC
:1006A00000207047962903DCC1F19601C84001E0A3
:1006B00096398840002AF4D040427047064C074DD6
:1006C00006E0E06840F0010394E807009847103422
:1006D000AC42F6D3FFF730FD98260008B826000894
:1006E000C0B24FF4F05100F0E9B900002DE9F34F2A
:1006F0008BB04FF0000801F10C000C464FF0010BDD
:1007000046460DF1080A019062690121019890475F
:10071000051E2DD0252D2CD0216A8847C0B16269D5
:10072000012101989047216A88470028F7D1411E8E
:1007300062690198904700E0761CA1690B98884790
:10074000216A88470028F7D1E1690B988847DBE7E1
:10075000A1690B9888470746A84201D1761CD3E7C8
:10076000E1690B9888477F1C02D1B8F1000F6FD068
:1007700047E1002762693D463946019890472A289B
:1007800004D162690121019890470125DFF8889220
:100790006269012101989047A0F130010A290AD22B
:1007A0004F45E5DC07EB870100EB4107303FDFD425
:1007B00045F01005ECE7E90601D46FF000476C281E
:1007C0000AD04C2814D0682815D06A280DD0742877
:1007D0001CD07A281AD01DE0626901210198904747
:1007E0006C2802D045F0040514E045F002050DE048
:1007F00045F020050AE062690121019890476828C8
:1008000002D045F0080505E045F400656269012164
:1008100001989047C4E9015765283DD019DC582854
:100820007AD00CDC452837D004DC252826D0412896
:1008300031D131E046282FD047282CD12CE05B283D
:1008400077D0612828D063287CD0642823D15AE04F
:10085000D1E06F2848D008DC66281DD067281BD05F
:10086000692821D06E2816D127E0702845D073283A
:1008700068D0752847D078280DD14DE0A1690B9834
:100880008847054625283FF469AFE1690B988847FA
:100890006D1C3FF46AAFB4E023466A466FF0010076
:1008A0000B99AFF300809FE045F040006060A8071F
:1008B00023464FF0000236D43EE0E8077FF447AF0E
:1008C0002068011D21600068290501D506701BE71D
:1008D000290701D5068017E7A90703D5F117C0E955
:1008E000006111E706600FE745F040006060A8076F
:1008F00023464FF0080216D41EE040F60E0125EA0A
:100900000100606016E045F040006060A8072346E3
:100910004FF00A0207D40FE045F040006060A807DE
:1009200008D5234610226FF001000B99AFF3008029
:100930005AE007E0234610226FF001000B99FFF701
:1009400063FC51E04FF000094F464B46632802D04C
:100950005B2807D041E02079C00601D40120A060C7
:1009600001273AE062690121019890475E2805D18C
:100970004FF001096269494601989047216939B9E8
:1009800000210A46534643F82120491C0829FADB76
:10099000B0B3216969B9C11700EBD16253110AEBF9
:1009A000830122F01F02821A01200B68904003434A
:1009B0000B6062690121019890475D28E8D1B9F187
:1009C000000F09D00020514651F82020D24341F8B1
:1009D0002020401C0828F7DB02AB224600976FF06E
:1009E00001000B99FFF7B6FC00280CDA401C08D177
:1009F000BBF1000F05D04FF0FF300DB0BDE8F08F18
:100A0000FFE74046F9E7E90701D108F1010806448C
:100A10004FF0000B78E60000CCCCCC0C30B480EA70
:100A2000010202F0004530F0004221F0004013D0F6
:100A300090B1C30DD40DC2F31601C0F31600E41A31
:100A400041F4000140F400027D34914201D3641C62
:100A500000E04900002C02DA30BC002070474FF45F
:100A600000000023914201D3891A034340084FEA52
:100A70004101F7D151B1914202D14FF0004105E05F
:100A800002D24FF0010101E06FF0010103EBC4500D
:100A9000284430BCFFF772BD420005D0C0F3C752F6
:100AA0005242914201DC0020704700EBC150704778
:100AB000962300221146FFF76ABD00007F2801D966
:100AC000002208E0064A02EB5002C007127800D16B
:100AD000120902F00F020120904008407047000008
:100AE0005826000800BFFEE770472DE9F041024696
:100AF00000250026002000230024002791F803C0D1
:100B00000CF00F0591F803C00CF0100CBCF1000FB5
:100B100003D091F802C04CEA050591F800C0BCF181
:100B2000000F31D0146800202BE04FF0010C0CFABC
:100B300000F3B1F800C00CEA03069E4220D1830006
:100B40004FF00F0C0CFA03F7BC4305FA03FC4CEA18
:100B5000040491F803C0BCF1280F06D14FF0010C3A
:100B60000CFA00FCC2F814C00AE091F803C0BCF112
:100B7000480F05D14FF0010C0CFA00FCC2F810C070
:100B8000401C0828D1D31460B1F800C0BCF1FF0F9D
:100B900034DD546800202EE000F1080C4FF001080D
:100BA00008FA0CF3B1F800C00CEA03069E4221D10A
:100BB00083004FF00F0C0CFA03F7BC4305FA03FC5B
:100BC0004CEA040491F803C0BCF1280F05D100F1F0
:100BD000080C08FA0CF8C2F8148091F803C0BCF1B4
:100BE000480F07D100F1080C4FF0010808FA0CF883
:100BF000C2F81080401C0828CED35460BDE8F081B4
:100C00000146886880B270470246002093680B4016
:100C10000BB1012000E0002070470146C86880B297
:100C2000704702460020D3680B400BB1012000E062
:100C300000207047416170470AB1016100E04161E5
:100C4000704700BFFEE700BFFEE7704770B50021A8
:100C500000230F22C47804B3154C246804F4E06424
:100C6000C4F5E064210AC1F10403CA40447804FADF
:100C700003F184781440214309010E4C0678A155F4
:100C8000047804F01F050124AC4005786D11AD0017
:100C900005F1E025C5F8004109E0047804F01F05DE
:100CA0000124AC40044D0678761145F8264070BD0D
:100CB0000CED00E000E400E080E100E070B500240D
:100CC0000EE00021204600F0F0F8002504E00020AE
:100CD00000F08DF9681CC5B2802DF8DB601CC4B231
:100CE000082CEEDB70BD000008B50121082000F0E3
:100CF0009FF914208DF8030003208DF802004FF4B3
:100D00008070ADF8000069460A48FFF7EEFE4FF428
:100D10000070ADF8000069460648FFF7E6FE0122C4
:100D200011020448FFF788FF012251020148FFF732
:100D300083FF08BD000C014070B50546002415E096
:100D40008020204100EA05024FF400710E48FFF7B1
:100D500073FF012211020C48FFF76EFF00224FF4CF
:100D600080710948FFF768FF601CC4B2082CE7DBFC
:100D7000012211020448FFF75FFF00224FF4807147
:100D80000148FFF759FF70BD000C014010B501226A
:100D900051020A48FFF750FF012211020748FFF7EE
:100DA0004BFF00224FF400710448FFF745FF00227B
:100DB0004FF480710148FFF73FFF10BD000C014068
:100DC00010B500224FF400710648FFF735FF0122ED
:100DD00011020448FFF730FF012251020148FFF7DA
:100DE0002BFF10BD000C014070B5002406E000256B
:100DF00000E06D1CB5F57A7FFBD3641CB4F57A7FF7
:100E0000F5D3FFF771FFAE2000F0E1F8D52000F038
:100E1000DEF8802000F0DBF8A82000F0D8F83F20B2
:100E200000F0D5F8D32000F0D2F8002000F0CFF881
:100E3000402000F0CCF8A12000F0C9F8C82000F054
:100E4000C6F8DA2000F0C3F8122000F0C0F88120C4
:100E500000F0BDF8CF2000F0BAF8D92000F0B7F8C4
:100E6000F12000F0B4F8DB2000F0B1F8302000F001
:100E7000AEF8A42000F0ABF8A62000F0A8F88D2072
:100E800000F0A5F8142000F0A2F8AF2000F09FF8C1
:100E9000FFF714FF70BD10B50246012000E050437B
:100EA0000B1EA1F10101FAD110BD70B505460C462B
:100EB00045F0B00000F08BF8102141EA141000F06A
:100EC00086F804F00F0000F082F870BD2DE9F041C3
:100ED00005460E461746721ED206110E6A1E5206AF
:100EE000100EFFF7E2FF002409E0A7F12001134AEA
:100EF00002EB0111085D00F07AF8601CC4B2082C06
:100F0000F3DB721ED206110E6A1E012303EB4202AE
:100F1000D0B2FFF7CAFF00240BE0A7F12001074A77
:100F200002EB011204F10801505C00F060F8601C53
:100F3000C4B2082CF1DBBDE8F081000048200008B5
:100F40002DE9F0478146884615461E46002D06DBF2
:100F50002B2241464846FFF7B9FF2F4605E02D22D8
:100F600041464846FFF7B2FF6F42002417E0301BAE
:100F7000411E0A20FFF78FFFB7FBF0F00A21B0FBFC
:100F8000F1F201FB120000F1300A08EB0400401CF2
:100F9000C1B252464846FFF799FF601CC4B2B44242
:100FA000E5DBBDE8F0872DE9F04107460E46154622
:100FB000002407E02A5D3019C1B23846FFF786FFEA
:100FC000601CC4B2285D0028F4D1BDE8F08110B5E2
:100FD0000446FFF7DBFE7820FFF7AEFE0020FFF7A8
:100FE000ABFE2046FFF7A8FEFFF7EAFE10BD10B5E6
:100FF0000446FFF7CBFE7820FFF79EFE4020FFF768
:101000009BFE2046FFF798FEFFF7DAFE10BD704703
:1010100029B1064AD2690243044BDA6104E0034A6B
:10102000D2698243014BDA61704700000010024030
:1010300029B1064A92690243044B9A6104E0034ACB
:1010400092698243014B9A61704700000010024090
:1010500030B500210022002400232D4D6D6805F0DD
:101060000C0121B1042905D0082923D105E0294D1F
:10107000056022E0274D05601FE0254D6D6805F4F1
:101080007012234D6D6805F48034022505EB924201
:101090001CB9214D554305600BE01D4D6D6805F4ED
:1010A00000351DB11C4D5543056002E0194D5543F7
:1010B000056002E0174D056000BF00BF144D6D686C
:1010C00005F0F0010909154D6B5C0568DD404560D0
:1010D0000F4D6D6805F4E061090A104D6B5C4568C1
:1010E000DD4085600A4D6D6805F46051C90A0B4DFD
:1010F0006B5C4568DD40C560054D6D6805F4404199
:10110000890B074D6B5CC568B5FBF3F5056130BD18
:101110000010024000127A0000093D006800002023
:1011200078000020704710B500F002F810BD0000F4
:101130000CB50020019000903348006840F48030E6
:101140003149086000BF3048006800F4003000906A
:101150000198401C0190009818B90198B0F5A06F53
:10116000F1D12948006800F4003010B1012000904E
:1011700001E0002000900098012843D12348006836
:1011800040F01000214908600846006820F0030084
:1011900008600846006840F0020008601A4840688D
:1011A000194948600846406848600846406840F46D
:1011B000806048600846406820F47C10486008461B
:1011C000406840F4E81048600846006840F08070CD
:1011D000086000BF0C48006800F000700028F9D0DB
:1011E0000948406820F00300074948600846406805
:1011F00040F00200486000BF0348406800F00C0067
:101200000828F9D10CBD0000001002400020024067
:10121000042808D14FF0E021096941F004014FF0A2
:10122000E022116107E04FF0E021096921F004019B
:101230004FF0E022116170477047000010B513486D
:10124000006840F0010011490860084640681049F4
:1012500008400E494860084600680E4908400B499E
:1012600008600846006820F480200860084640684E
:1012700020F4FE0048604FF41F008860FFF753FF22
:101280004FF000600449086010BD000000100240EB
:101290000000FFF8FFFFF6FE08ED00E010B50121A9
:1012A0001A4800F0C2F878B30121184800F0AEF8EF
:1012B00017480068401C1649086016480068401C22
:1012C000144908601448007832301149096888428E
:1012D00002D10020114908600D480068B0F5FA6F8E
:1012E00007D300200A49086001200C4908600C4916
:1012F0000870084800680B49884205D3002005495A
:10130000086001200849087010BD0000000400407A
:1013100030000020340000202C00002080012142F9
:101320002D000020A08601002E00002030B589B0DD
:1013300005460C4601210420FFF77AFE0121022018
:10134000FFF766FE01210846FFF772FEC020ADF8E8
:10135000200018208DF8230003208DF8220008A912
:101360001E48FFF7C2FB4FF400511D48FFF762FC17
:101370000020ADF81A00ADF81600ADF81850ADF821
:10138000144005A9174800F01DF96020ADF80400CD
:101390000020ADF80E000120ADF8060001A91148AB
:1013A00000F054F801A90F4800F0A6F808210D48F4
:1013B00000F098F808210B4800F0F0F801210948E6
:1013C00000F027F840F2DC51064800F0F6F84FF440
:1013D000FA61044800F0F3F809B030BD000801409C
:1013E000001001400004004010B50121054800F044
:1013F0001CF830B10121034800F008F8012002492F
:10140000087010BD000800402D000020CA43028271
:10141000704721B1028842F00102028004E0028894
:101420004FF6FE731A400280704730B50246002026
:1014300000230024158A05EA0103958905EA0104C1
:1014400013B10CB1012000E0002030BD70B50024C4
:1014500000220023058C4FF6FE7635400584028C71
:101460008388048B4FF68F752C40B51E2C400D8859
:101470002C43751E2A400D892A434D882A43144D5A
:10148000A8420BD0134DA84208D0134DA84205D056
:10149000124DA84202D0124DA84213D14FF6F77553
:1014A0002A404D892A434FF6FB752A408D882A43EE
:1014B0004FF6FF652B404FF6FF552B408D892B4390
:1014C000CD892B4383800483CD888586028470BDBB
:1014D000002C014000340140004001400044014024
:1014E000004801400A460021018B4FF6F77319406E
:1014F000114301837047000070B5002400220023CF
:10150000058C4FF6EF7635400584028C8388048B7A
:1015100048F6FF752C404FF6FF452C400D884FF6DE
:10152000FF7606EA05252C434FF6DF752A400D8924
:1015300006EA05152A434D8806EA05152A43154D86
:10154000A84202D0144DA8421DD14FF67F752A4003
:101550004D894FF6FF7606EA05152A434FF6BF750B
:101560002A408D8806EA05152A434FF6FF352B40A1
:101570004FF2FF752B408D8906EA85052B43CD89F7
:1015800006EA85052B4383800483CD880587028482
:1015900070BD0000002C0140003401400A460021CB
:1015A000018B4FF2FF7319404FF6FF7303EA0223DA
:1015B000194301837047818670470187704781878F
:1015C00070470000002202881D4B98420ED01D4B30
:1015D00098420BD0B0F1804F08D01B4B984205D0F9
:1015E0001A4B984202D01A4B984204D14FF68F738F
:1015F0001A404B881A43174B984207D0164B984213
:1016000004D04FF6FF431A40CB881A4302808B88E0
:1016100083850B8803850A4B98420BD0094B98426F
:1016200008D00E4B984205D00D4B984202D00D4B7E
:10163000984201D10B7A0386012383827047000010
:10164000002C01400034014000040040000800402C
:10165000000C004000100040001400400040014019
:10166000004401400048014010B540F225511648A1
:1016700000F04BF830B3144800F002F9C4B2232C48
:101680000ED11248007858B923201149114A127816
:10169000885401200D49087000200E49087011E09F
:1016A0000A48007870B90A480A4909784454094838
:1016B0000078401C07490870084600781E2801DBA6
:1016C0000020087010BD00000038014066000020B6
:1016D000B60300206700002021B1828942F4005245
:1016E000828104E082894DF6FF731A40828170473F
:1016F00002460020B1F5007F00D100BF13880B40E7
:101700000BB1012000E00020704770B502460024B4
:1017100000230025002040F66A16B14200D100BF28
:10172000C1F3421501F01F03012606FA03F3012D50
:1017300002D19689334006E0022D02D1168A334049
:1017400001E0968A33400C12012606FA04F416884A
:10175000344013B10CB1012000E0002070BDF0B5A1
:101760000346002400260025002040F66A17B942EF
:1017700000D100BF1846C1F3421401F01F06012733
:1017800007FA06F5012C01D10C3004E0022C01D13E
:10179000103000E014301AB107682F43076002E0F0
:1017A0000768AF430760F0BD2DE9F04786B00546F6
:1017B0000E460024A24600BFA1460027B08900B112
:1017C00000BF2F462C8A4CF6FF700440F08804437B
:1017D0002C82AC894EF6F3100440B088318908435E
:1017E000718908430443AC81AC8A4FF6FF40044042
:1017F000B0890443AC8201A8FFF72AFC1F48874246
:1018000002D1DDF810A001E0DDF80CA0A88900F4F9
:10181000004040B10AEBCA0000EB0A1031684900F1
:10182000B0FBF1F807E00AEBCA0000EB0A103168E0
:101830008900B0FBF1F86420B8FBF0F00401200946
:10184000642101FB1089A88900F4004040B13220D6
:1018500000EBC900B0FBF1F000F00700044308E022
:10186000322000EB09106421B0FBF1F000F00F0012
:1018700004432C8106B0BDE8F08700000038014029
:1018800001468888C0F308007047C1F308028280CF
:10189000704700BFFEE74100080218BF04200A0E8F
:1018A00018BF40F001004FF07F4232EA010108BF4B
:1018B00040F00200012808BF052070470121FFF712
:1018C000EBB800210846FFF7A9B86FF05E010807E2
:1018D000FFF7E2B82DE9F04D0D4614464FF07F4179
:1018E000B1EB440F9EBF4FF0FF312960BDE8F08D92
:1018F0004FF0004040EA0421C4F3C750783810F09C
:101900001F024A4B4FEA601CC2F120067B44C4F31D
:10191000C750A0F178004FEA601003EB800053F845
:101920002C3008BFD0E901C612D0D0F804C09340D3
:101930002CFA06F73B4387680CFA02FC27FA06F8F4
:10194000C06807FA02F2F0404CEA080C42EA0006CE
:10195000A3FB0132ACFB01C0A6FB016101EB0C064D
:101960008E4234BF4FF0010C4FF0000CC11861449F
:10197000BCF1000F02D0814202D903E0814201D2C2
:10198000012000E00020104400F120024FEA9218EC
:101990008006CA0C40EA42304F03C5F80080FEF7CB
:1019A000A1FD82463846FFF783F86FF01201FFF77A
:1019B00073F807463046FFF77BF86FF02501FFF715
:1019C0006BF8834639465046FEF734FD5946FEF71C
:1019D00031FD00F500666FF30B0651463046FEF709
:1019E0007BFD3946FEF778FD5946FEF778FD104934
:1019F000FEF7FBFD07460F493046FEF7F6FD394678
:101A0000FEF718FD07460C493046FEF7EEFD394655
:101A1000FEF710FD14F0004F08BFBDE8F08DC8F1CF
:101A2000805180F000402960BDE8F08D280D000055
:101A3000DB0FC92F22AAFD290000C92F02E008C828
:101A4000121F08C1002AFAD170477047002001E038
:101A500001C1121F002AFBD1704700000149086034
:101A6000704700007C00002010B56FF00400FFF705
:101A7000CFFB0A4800680A49B0FBF1F00949087039
:101A80000846007800EB4001C1EBC0104FF6FF7133
:101A900001EAC0000449088010BD00004800002091
:101AA00000127A005C0000205E0000200146114A0E
:101AB00012884A434FF0E0235A6100229A611A4685
:101AC000126942F001021A6100BF4FF0E022106972
:101AD00000F001021AB100F48032002AF5D04FF074
:101AE000E022126922F001024FF0E0231A61002285
:101AF0009A6170475E0000201FB5694601A800F09A
:101B00001BFA38B106A101A8FEF754FB10B905492C
:101B10000098086000200190029003901FBD000013
:101B2000636D64001800002010B51348006800F0D1
:101B30003FF91249086012480068FEF7D3FC0F49CC
:101B4000486010480068FEF7CDFC0C4988600E48DC
:101B50000068FEF7C7FC0949C8600C480068FEF73A
:101B6000C1FC064908610A4903480068FEF762FCA7
:101B70000149086010BD00004400002080000020E2
:101B80001C0000202000002024000020280000204D
:101B900045D8203EFFF768FF472149F63F40FFF751
:101BA000C5FB4FF4E13000F0E9F9FFF71DF93FA262
:101BB00001210846FFF7F7F976E0FFF7B5FF00F0DF
:101BC00087F840213C48FFF71FF83C490860402156
:101BD0003948FFF726F83A4908603748FFF710F808
:101BE000384908603448FFF718F837490860062379
:101BF0003248012102680220FFF7A2F9062330488B
:101C0000092102680220FFF79BF906232D480121D4
:101C100002680320FFF794F906232B480921026884
:101C20000320FFF78DF940F68C212848FFF7C3FC0D
:101C30004FF47A70FFF73AFFFFF776FF00F048F8AD
:101C4000FFF75AFF40211C48FEF7DEFF1B490860E2
:101C500040211948FEF7E5FF194908601648FEF7CC
:101C6000CFFF184908601448FEF7D7FF16490860EF
:101C700006231248012102680220FFF761F90623BA
:101C80000F48092102680220FFF75AF906230D4880
:101C9000012102680320FFF753F906230A480921AE
:101CA00002680320FFF74CF987E70000506172617A
:101CB0006D65746572000000000801401C00002082
:101CC0002000002024000020280000200004004004
:101CD00000B599B021A003C8CDE9170121A103C91E
:101CE000CDE9150121A103C9CDE9130121A103C942
:101CF000CDE911012C2221A106A8FEF737FA2A48C6
:101D00000068019028484068029027488068039046
:101D10002548C0680490244800690590062217A948
:101D2000224800F07BF92B2206A9204800F076F922
:101D3000062215A91D4800F071F9062213A91B48B7
:101D400000F06CF9142201A9184800F067F9062286
:101D500011A9164800F062F919B000BD4141424294
:101D6000434300004343424241410000444445454F
:101D700046460000464645454444000073696E28C7
:101D800078295F746573742C534F4D5F496E2C53E3
:101D90004F4D5F4F75742C534F4D315F496E2C532F
:101DA0004F4D315F4F7574008000002000380140B6
:101DB0002DE9F8430446024652486946B0EB420F0B
:101DC00009D94FF0E640B0EB420F94BF00204FF02E
:101DD000FF30009030E04C4B22F00040834271D93C
:101DE0004A492046FEF701FCFEF731FC8046FEF72B
:101DF0004CFC00F00300009045494046FEF7F5FB1F
:101E0000054644494046FEF7F0FB06464249404637
:101E1000FEF7EBFB074641494046FEF7E6FB21464D
:101E2000FEF75DFB3946FEF757FB3146FEF754FBE4
:101E30002946FEF751FB04462546009C002C45DB55
:101E4000294614F0010F08461ED0FEF7CEFB0546CA
:101E50003349FEF7CAFB3349FEF7ECFA2946FEF791
:101E6000C4FB3149FEF7E6FA2946FEF7BEFB4FF008
:101E70007E51FEF7DFFA14F0020F08BFBDE8F883C9
:101E800080F00040BDE8F883FEF7AFFB0646274927
:101E9000FEF7ABFB2649FEF722FB3146FEF7A5FB1A
:101EA0002449FEF7C7FA3146FEF79FFB2946FEF7A5
:101EB0009CFB2946FEF7BEFA14F0020FE0D1BDE804
:101EC000F883FFE71046FFF705FDB4E76800B0F1BF
:101ED0007F4F09D22846FFF7DEFC042808BFFFF732
:101EE000F4FC2846BDE8F88306D10120FFF7B6FDD3
:101EF000BDE8F843FFF7E5BC2846BDE8F843FFF727
:101F0000DDBC0000B61F927E490E494683F9223F90
:101F10001A61342C0020A23300A0FD390000C93F13
:101F2000B93AB2BACA9F2A3DDDFFFFBE336D4C39C4
:101F3000DA82083CA0AA2ABE70B504460D460026E7
:101F40000A48007801280FD12B46224608A10A48EA
:101F5000FEF73EF9022800D101261E210648FEF7B1
:101F60001EF9002001490870304670BD660000204F
:101F70002533733D25642300B603002010B586B0D9
:101F80000446012144F20400FFF752F84FF40070B8
:101F9000ADF8140003208DF8160018208DF81700F6
:101FA00005A91C48FEF7A1FD4FF48060ADF81400B0
:101FB00004208DF8170005A91648FEF796FD252088
:101FC0008DF8000003208DF801008DF8020001203B
:101FD0008DF803006846FEF739FE01940020ADF845
:101FE0000800ADF80A00ADF80C00ADF810000C20A8
:101FF000ADF80E0001A90848FFF7D6FB012240F218
:1020000025510548FFF7ABFB01210348FFF764FBAF
:1020100006B010BD000801400038014070B506460A
:102020000C4615460BE000BF40213046FFF760FB31
:102030000028F9D021783046FFF727FC641C281EC1
:10204000A5F10105EFD170BD000000000000000007
:102050000000000000000000000000F80000000088
:10206000000000333000000000100C06100C0600C9
:10207000000000000000000040C07840C078400030
:10208000043F04043F040400007088FC0830000092
:10209000001820FF211E0000F008F000E0180000EA
:1020A00000211C031E211E0000F0088870000000A3
:1020B0001E2123241927211010160E0000000000F5
:1020C0000000000000000000000000E01804020012
:1020D000000000071820400000020418E000000083
:1020E0000040201807000000404080F08040400081
:1020F0000202010F01020200000000F000000000D7
:102100000101011F010101000000000000000000AA
:1021100080B070000000000000000000000000001F
:1021200000010101010101010000000000000000A8
:102130000030300000000000000000008060180443
:10214000006018060100000000E010080810E00020
:10215000000F102020100F00001010F800000000E9
:102160000020203F20200000007008080888700030
:1021700000302824222130000030088888483000B0
:102180000018202020110E000000C02010F80000D0
:1021900000070424243F240000F808888808080069
:1021A0000019212020110E0000E01088881800007E
:1021B000000F112020110E0000380808C838080050
:1021C0000000003F000000000070880808887000D0
:1021D000001C222121221C0000E010080810E00051
:1021E0000000312222110F00000000C0C0000000DA
:1021F00000000030300000000000008000000000FF
:1022000000008060000000000000804020100800F6
:1022100000010204081020004040404040404000BF
:10222000040404040404040000081020408000009A
:102230000020100804020100007048080808F0009F
:102240000000003036010000C030C828E810E0006F
:102250000718272423140B000000C038E0000000FA
:10226000203C23020227382008F888888870000064
:10227000203F202020110E00C03008080808380038
:10228000071820202010080008F808080810E000AF
:10229000203F202020100F0008F88888E808100050
:1022A000203F20202320180008F88888E808100024
:1022B000203F200003000000C0300808083800005C
:1022C00007182020221E020008F808000008F8085D
:1022D000203F210101213F20000808F808080000E4
:1022E0000020203F2020000000000808F808080017
:1022F000C08080807F00000008F888C0281808008F
:10230000203F20012638200008F8080000000000C7
:10231000203F20202020300008F8F800F8F80800BE
:10232000203F003F003F200008F830C00008F808B8
:10233000203F200007183F00E01008080810E000C8
:102340000F10202020100F0008F808080808F000DF
:10235000203F210101010000E01008080810E00002
:102360000F18242438504F0008F888888888700097
:10237000203F2000030C3020007088080808380037
:102380000038202121221C00180808F8080818002D
:102390000000203F2000000008F808000008F808AE
:1023A000001F202020201F000878880000C838085F
:1023B000000007380E010000F80800F80008F800D7
:1023C000033C0700073C0300081868808068180871
:1023D00020302C03032C30200838C800C8380800EF
:1023E0000000203F2000000010080808C83808003E
:1023F0002038262120201800000000FE02020200E2
:102400000000007F40404000000C30C00000000091
:10241000000000010638C00000020202FE000000B9
:10242000004040407F00000000000402020204005F
:10243000000000000000000000000000000000009C
:102440008080808080808080000202040000000084
:10245000000000000000000000008080808000007C
:102460000019242222223F2008F80080800000006A
:10247000003F112020110E0000000080808000002D
:10248000000E112020201100000000808088F8003C
:10249000000E112020103F2000008080808000006E
:1024A000001F222222221300008080F088888818D2
:1024B0000020203F202000000000808080808000DD
:1024C000006B94949493600008F800808080000072
:1024D000203F210000203F2000809898000000004D
:1024E0000020203F2020000000000080989800007D
:1024F00000C08080807F000008F80000808080009D
:10250000203F24022D302000000808F800000000C1
:102510000020203F2020000080808080808080007C
:10252000203F20003F20003F80800080808000000E
:10253000203F210000203F2000008080808000009C
:10254000001F202020201F008080008080000000CD
:1025500080FFA12020110E000000008080808000FC
:10256000000E112020A0FF808080800080808000ED
:1025700020203F212000010000008080808080001A
:102580000033242424241900008080E0808000008F
:102590000000001F202000008080000000808000DC
:1025A000001F202020103F2080808000008080803D
:1025B00000010E30080601008080008000808080CD
:1025C0000F300C030C300F000080800080808000F2
:1025D0000020312E0E31200080808000008080801D
:1025E00080818E70180601000080808080808000CD
:1025F0000021302C2221300000000000807C0202EB
:1026000000000000003F404000000000FF0000000C
:1026100000000000FF0000000002027C80000000BB
:102620000040403F000000000006010102020404D7
:102630000000000000000000000000006E83F9A20E
:102640002915444ED15727FCC0DD34F5999562DB3E
:102650004190433CAB6351FEDDDDDDDDDCBBBBDD2A
:10266000DDDDDDDDDDDDDDDD988888888888888832
:102670007777777777888888855555566666666652
:102680006666666666688888833333322222222231
:10269000222222222228888DB8260008000000204D
:1026A000800000003C1A0008382700088000002045
:1026B000580700004C1A000800000000000000004D
:1026C0000000000000000000000000000100000009
:1026D000F401000000000000000000000000000005
:1026E00000000000000000000000000000000000EA
:1026F00000000000000000000000000000000000DA
:1027000000A24A04000000000000000001020304CF
:10271000060708090000000000000000000000009B
:102720000000000001020304010203040607080977
:0827300002040608000000008D
:0400000508000131BD
:00000001FF
